:020000040800F2
:10000000A80400203D170008D9150008DB150008DA
:10001000DD150008DF150008E115000800000000EC
:10002000000000000000000000000000E3150008D0
:10003000E515000800000000E7150008E9150008B4
:100040004D170008511700085517000859170008E8
:100050005D17000861170008651700086917000898
:100060006D17000871170008ED15000875170008D6
:10007000791700087D170008811700088517000808
:10008000891700088D1700089117000895170008B8
:10009000991700089D170008A1170008A517000868
:1000A000A9170008AD170008B1170008B517000818
:1000B000FF150008B917000800000000BD17000870
:1000C000C11700080000000000000000C51700086C
:1000D00000000000C9170008CD170008000000004C
:1000E000D1170008D5170008D917000838B5040043
:1000F00001D1012032BD00F058F818B900F051F8D4
:1001000000F09EFB27E090F83D10012901D001206E
:100110007047022180F83D100268D16841F001016A
:10012000D160DFF82421016891421EBFB1F1804FF8
:10013000DFF81821914206D1896801F007010629EC
:1001400007D0026800E00A461168104641F001013C
:1001500001600020704702206870211D206800F0B7
:10016000E3F90121A9720120A870E9702871697171
:10017000A871E971287269726870002032BD8868C0
:1001800000F007000628704738B5040001D10120AF
:1001900032BD00F00AF818B900F003F800F06AFB6D
:1001A000D9E7002129702046704704F13C056878A2
:1001B000704710B5044604F13E0009B9027807E023
:1001C000042908BF427803D008290CBF8278C2787E
:1001D000012A01D0012010BD11B9022202700AE0EB
:1001E000042902D10222427005E0082907BF022239
:1001F00082700223C3702068012200F096FA00F09A
:1002000014F81EBFB1F1804FDFF84000814202D1E7
:10021000FFF7B5FF01D000F002F8002010BD0A463C
:10022000106840F00100086070472268DFF818008D
:10023000824205D1DFF81820116841F400411160B5
:100240002168814270470000002C014000040040FA
:10025000442C014010B5044620680269910715D569
:10026000C268910712D56FF0020202610121217765
:10027000806910F0030F204602D000F039FB03E044
:1002800000F037FB00F087F8002020772068026933
:10029000510715D5C268510712D56FF004020261EB
:1002A00002212177806910F4407F204602D000F0BF
:1002B0001FFB03E000F01DFB00F06DF8002020772D
:1002C000206801690A0715D5C1680A0712D56FF0C1
:1002D0000801016104222277C06910F0030F204653
:1002E00002D000F005FB03E000F003FB00F053F840
:1002F0000020207720680269D10615D5C268D10692
:1003000012D56FF01002026108212177C06910F444
:10031000407F204602D000F0EBFA03E000F0E9FA5B
:1003200000F039F80020207720680169CA0708D555
:10033000C168CA0705D56FF001010161204600F0D0
:10034000D9FA206801690A0608D5C1680A0605D5E8
:100350006FF080010161204600F0CDFA206802694B
:10036000510608D5C3685A0605D56FF040010161F2
:10037000204600F0C1FA206801698A060AD5C168E2
:100380008A0607D56FF0200101612046BDE81040C4
:1003900000F0B3BA10BD204600F0B0BA002084F8D7
:1003A0003C002846704770B500F058F801D1022093
:1003B00070BD012084F83C0032B1042A15D0082A0F
:1003C00025D00C2A34D045E0206800F0D7F8216809
:1003D000886940F008008861886920F0040088611D
:1003E0008A69306902438A6135E0206800F0E8F8E4
:1003F0002068816941F400618161816921F4806133
:1004000081618169326941EA0221816123E02068CA
:1004100000F0FFF82168C86940F00800C861C869A9
:1004200020F00400C861CA6930690243CA6112E061
:10043000206800F016F92068C16941F40061C161CB
:10044000C16921F48061C161C169326941EA022157
:10045000C16100E00125FFF7A1FF70BD0446002542
:1004600094F83C0001280E46704770B5044604F12C
:100470003C0600253078012801D1022070BD012200
:100480003270022070702368DFF824029A680240FC
:100490009A600868020018BF102830D0202818BFC2
:1004A00030282CD0402826D0502819D060281BD0C6
:1004B000702806D0B0F5805F27D0B0F5005F07D078
:1004C00022E000F02CF82168886840F0770005E011
:1004D00000F025F82168886840F48040886014E0C6
:1004E00000F019F850210BE0CA684968206800F054
:1004F000F8F8602104E000F00EF8402100E0014629
:10050000206800F000F900E0012501217170002051
:100510003070284670BDCA6849682068D0E0CB6852
:100520004A6889682068F6E030B50468614B624D1E
:1005300098421CBFB0F1804FA84208D124F070024D
:100540004C681443984218BFB0F1804F01D0A842C4
:1005500003D124F44072CC6814434A6924F0800427
:100560001443046098428C68C4620A68826202D1B3
:100570000A6952490A600123436130BD30B500F079
:1005800090F822F00202436885690C6825F0730533
:100590002C438D681543474A90420BD123F4407396
:1005A000CA6825F0080515434A691A438B6925F086
:1005B000040513434360846149684163056230BDAB
:1005C00070B5046A026A22F01002026224F020046C
:1005D000456883690A688E6823F4E64343EA022388
:1005E000344A904244EA06140DD1CA684E6924F098
:1005F000800444EA02148A6925F44065164324F015
:10060000400445EA86054560836149688163046268
:1006100070BD70B5046A026A22F48072026224F42A
:1006200000744568C2690B688E6822F07302134338
:10063000204A904244EA06240DD1CA684E6924F447
:10064000006444EA02248A6925F44055164324F4E0
:10065000806445EA06154560C3614968C163046268
:1006600070BD70B5036A026A22F48052026223F4FC
:1006700000534468C2690D688E6822F4E64242EA7B
:1006800005220C4DA84243EA063304D14D6924F4F7
:10069000804444EA85144460C2614968016403628D
:1006A00070BD026A036A5B085B000362704700006A
:1006B0008800FFFF002C014000040040302C014066
:1006C00010B5036A046A64086400046223F00A0334
:1006D000846924F0F00444EA02148461194301623D
:1006E00010BD10B5036A046A24F01004046223F0FC
:1006F000A003846924F4704444EA0234846143EA28
:100700000113036210BD826822F07002114341F0B0
:1007100007018160704710B5846824F47F44214349
:10072000114341EA0321816010BD10B501F01F01A2
:10073000046A01238B409C43046202FA01F1046ABB
:100740002143016210BD0EE0026843680244083094
:100750005FEAC37C44BF4B445B1E52F804CB43F8B2
:1007600004CB091FF9D150F8041B0029ECD17047C4
:1007700010B586B01021002202A800F0C1F8632055
:10078000554C60604FF6FF7000214FF08042E060F2
:10079000009101912260A1602161A1612046FFF7D3
:1007A000A5FC08B100F031F94FF48050029002A985
:1007B0002046FFF75AFE08B100F027F900F039F89B
:1007C00008B100F022F906B010BD18B589B00022BA
:1007D000009201921C2102A800F092F863203F4C85
:1007E0003F4A606000214FF6FF70E0602260802089
:1007F000A061A16021612046FFF7C6FC08B100F0AE
:1008000004F900F016F808B100F0FFF860200021AC
:1008100002900391049106910C2202A92046FFF751
:10082000C2FD08B100F0F1F8204600F034F80AB03B
:1008300010BD0020009001906946204600F0E8B805
:100840000068B0F1804F00D0704780B5254801683E
:1008500041F0010101600022006800F001000090F9
:100860000521009B1C2000F016F9BDE802401C2069
:1008700000F030B981B001681948814209D11948A6
:10088000016841F002010160006800F00200009080
:10089000009801B0704718B585B0044610210022B9
:1008A00001A800F02DF823680D498B4211D10E48A4
:1008B000026842F008020260006800F00800009040
:1008C0000220009901900290049001A9074800F0CD
:1008D00029F906B010BD0000140000205C000020C3
:1008E000000400401C10024018100240000C01409F
:1008F00070477047704770477047704770470000F7
:100900004018491C1CBFB1F1010100F8012DF9D1BB
:1009100070470000F8B500F001FA00F041F800F06F
:100920000FFAFFF752FFFFF723FF1748174F184E34
:10093000FFF7E9FB4EF660243C604EF661257D61D1
:100940000C211448FFF735FC12E0308800F054FA0F
:100950000022114B00F05EFA00F080FB80B238609C
:100960004FF40051400878610C4800F0ACF907E002
:100970003188A94202DA30880A28E6DA3C607D61D3
:10098000322000F087FBF3E7140000202C04004025
:10099000100000205C0000200000FA3F0010014021
:1009A00000B58FB02821002205A8FFF7A9FF142168
:1009B00000226846FFF7A4FF0121059100224FF4B1
:1009C0008031069107920D91012302224FF44021BC
:1009D00009930C920E9105A800F070FB08B100F08D
:1009E00014F890210222029101920F200021009020
:1009F0004FF48062049103920121684600F0DFFC0D
:100A000008B100F002F80FB000BD72B6FEE70000BA
:100A100070B500F13C031A78012A01D1022070BDA3
:100A200001241C7002225A7006687568B4680A684E
:100A300025F070051543756002680A4882421EBFA2
:100A4000B2F1804F0648824204D1486824F0800405
:100A500004439460012159700020187070BD00009B
:100A600000040040002C01400A01010002D4274B81
:100A70005A547047264801F00F01014401F8042C34
:100A8000704724490A6860F30A2240F2FA5060F382
:100A90001F420A60704770B51E4C2368C3F30223DF
:100AA0000124C3F10705052D2FBF0F26C3F107064B
:100AB00004FA06F6761E1D1D072D34BF0023DB1E2B
:100AC0003140994004FA03F3BDE870405B1E1A40C0
:100AD0001143C9E7010007D4012200F01F010E4BAA
:100AE0008A40400943F820207047401EB0F1807FC3
:100AF00001D30120704709494860F022084802707C
:100B000000238B6007220A600020704700E400E0A9
:100B100018ED00E00CED00E000E100E010E000E086
:100B200023ED00E02DE9F84F002700246E4BDFF89D
:100B3000BC81DFF8BC914FF00F0A024610E0D3F8F9
:100B400000E000EA0E00186009E0C3F804C04D6838
:100B5000ED03F4D518684EEA000EC3F800E07F1CE0
:100B60000D6835FA07F000F0A880012000FA07FCB4
:100B70000CEA050EE645F2D14D683DB3012D1AD0C1
:100B8000022D1DD0032D2ED0112D16D0122D1AD0CE
:100B9000584885421CBF5848854217D0574885425F
:100BA0001CBF5748854211D0564885421CBF564845
:100BB00085420BD018E0CC6816E0CC68241D13E009
:100BC000CC68083410E0CC680C340DE0886808B9B3
:100BD000042409E0012819BF0824C2F814C008241D
:100BE000C2F810C000E00024BEF5807F03D210469A
:100BF0004FEA870C04E0A7F10805101D4FEA850CA9
:100C000006680AFA0CF5AE4304FA0CF545EA060C40
:100C1000C0F800C04868C000A1D5D9F800C04CF0A9
:100C2000010CC9F800C0BD00D9F8000000F00100B7
:100C3000009005F00C0C0098344DB80858F820B01E
:100C40000AFA0CF62BEA0606AA4208BF002509D0CC
:100C50002F4DAA4208BF012504D02E4DAA420CBF39
:100C60000225032505FA0CF545EA060C48F820C0D4
:100C70006FEA0E004D68ED0204D59D684EEA050549
:100C80009D6005E0D3F808C000EA0C0CC3F808C06A
:100C90004D68D3F80CC0AD024CBF4EEA0C0C00EA14
:100CA0000C0CC3F80CC04D68D3F804C0AD034CBFA6
:100CB0004EEA0C0C00EA0C0C47E7BDE8F18F02B9D4
:100CC000090401617047C36801EA0302994341EADC
:100CD00002410161704710490A6803461A421CBF6D
:100CE0000B6000F032BC7047000401400800014076
:100CF0001810024000001110000012100000211016
:100D000000002210000031100000321000080140E5
:100D1000000C0140001001401404014080B5074858
:100D2000016841F0100101600320FFF7AAFE0F20C7
:100D300000F00CFC00F02AFC002002BD0020024064
:100D400018B585B0102100226846FFF7D9FD264866
:100D5000264C026842F010020260016801F01001A6
:100D60000491049B026842F020020260016801F0D5
:100D700020010491049B026842F0080202600168AD
:100D800001F008010491049A016841F00401016036
:100D90000022006800F0040004904FF40051049811
:100DA0002046FFF78CFF112101914FF400500221E2
:100DB000009000220391029269462046FFF7B2FE9E
:100DC00010200021009002916946094A09480192C9
:100DD000FFF7A8FE002205210A20FFF75CFE0A208B
:100DE000FFF778FE06B010BD181002400010014059
:100DF00000001110000C014050B1B0FA80F18840A1
:100E0000C91CC1F58461090501EBD021400570477B
:100E100001467047F0B540F2FF7581EA030C0CF013
:100E2000004C15EA11541DBF15EA1357AC42AF42EE
:100E3000E5E0BC41C1F31301C3F31303801A9941E8
:100E400043F4801304D2641E0018494180185941AC
:100E5000C90241EA5051B1FBF3F603FB1611A2FBA4
:100E60000675D7EBC020A94102D2761E80185941E1
:100E7000C90241EA5051B1FBF3FE03FB1E11A2FB74
:100E80000E75D7EBC020A94103D2AEF1010E801838
:100E90005941890241EA9051760546EA8E2EB1FB0E
:100EA000F3F603FB1611A2FB0675D7EB8020A941D0
:100EB00002D2761E80185941C90241EA50514EEAC9
:100EC000060EB1FBF3F603FB1611A2FB0675D7EB7A
:100ED000C020A94102D2761E80185941C90241EAB8
:100EE0005051B1FBF3F703FB1711A2FB0735D3EB0E
:100EF000C020A94167F100070CBF004247F001077D
:100F000066F3D5274FEA1E31B80814F5806412DD68
:100F1000BD0775F1004250EB0E5051EB045111F535
:100F2000801F5CBF41EA0C01F0BD4CF07F6141F0D5
:100F3000E0410020F0BDBD076D0840EA0E5041F4CD
:100F40008011D4F10104B4F120060ADAC4F12006BC
:100F50000200E04001FA06F3E1401843B2401543B5
:100F60000EE0342C13DCC6F1200445EA40056D0880
:100F700020FA06F2154321FA06F0A1400D430021A4
:100F800075F1004250F1000051EB0C01F0BD002062
:100F90005FEA0C01F0BDCFB992185B41B3FA83F759
:100FA00004BFB2FA82F6BF190B3FB7F120062FBF7C
:100FB00002FA06F3BB40C7F1200622FA06F638BF54
:100FC0003343BA401CB1E419641E33E77F4231F069
:100FD0000041B1FA81F404BFB0FA80F6A4190B3CC9
:100FE000B4F120062FBF00FA06F1A140C4F120069B
:100FF00020FA06F638BF3143A0403C1B1AE7AC424A
:101000001ABF05EA1357AF4212E050EA41061CBF6F
:1010100052EA4306BFE750EA4107304661461CBF2B
:1010200041EA0551F0BD52EA430C08BFC143F0BD8F
:1010300000204FF4001616EB410F98BF16EB430F3C
:1010400008BF16EB410F24BFC14305E016EB430F69
:101050000CBF61464CEA0551F0BD0000C1F30A53D4
:1010600040F21E42D31A0CDDCA0283F3070342EAA0
:10107000505242F00042DA4002EBE17282EAE17043
:1010800070476FEAE17203F2E13008B182F000408C
:101090007047000038B5054600F098FA15F1010FC9
:1010A000044602D004490878451900F08FFA001B65
:1010B000A842FAD331BD00BF000000202DE9F8435B
:1010C000040016D02078DFF84474C10713D578687F
:1010D00000F00C00042807D0786800F00C00082805
:1010E00040D17968C8033DD53A68910303D560685B
:1010F000002800F05B812078DFF82064810719D593
:10110000786810F00C0F07D0786800F00C00082801
:101110005FD17868C1035CD43868810703D5206942
:10112000012840F043813968606921F0F80141EA03
:10113000C00139602178080778D5A069DFF8E0138D
:10114000002800F09E8001220A6000F03FFA054668
:10115000796A88075BD400F039FA401B0228F7D976
:10116000032026E16068B0F5803F03D1386840F481
:10117000803013E058B1B0F5A02F08D1386840F4A2
:10118000802038603A6842F480323A6007E039687B
:1011900021F480313960386820F48020386060683C
:1011A00058B100F013FA054639688803A3D400F05B
:1011B0000DFA401B6528F7D3D2E700F007FA054681
:1011C0003968880397D500F001FA401B6528F7D3EA
:1011D000C6E7206968B10121316000F0F7F90546E2
:1011E000386881079FD400F0F1F9401B0228F7D935
:1011F000B6E70022326000F0E9F905463968880751
:1012000098D500F0E3F9401B0228F7D9A8E7DFF8EA
:1012100000231168C9084FF47A70B1FBF0F0009018
:1012200000BF0098411E00280091F9D120784107A5
:101230006ED5F9690025C80009D4F96941F08051DB
:10124000F9610125F86900F0805000900098DFF8FE
:10125000D482D8F80000C10520D4D8F8000040F4AA
:101260008070C8F8000000F0B1F98146D8F800108D
:10127000C80513D400F0AAF9A0EB09006528F5D33E
:101280006EE7086000F0A2F90546796A8807CDD5B7
:1012900000F09CF9401B0228F7D961E7E0680128BB
:1012A00008D008B9386A09E00528386A06D140F044
:1012B00004003862386A40F0010005E04008400050
:1012C0003862386A20F00400386241F28938E068F8
:1012D00060B100F07BF98146396A880713D400F0C9
:1012E00075F9A0EB09004045F6D339E700F06EF937
:1012F0008146396A880706D500F068F9A0EB090035
:101300004045F6D32CE71DB1F86920F08050F86114
:10131000E06900284CD0796801F00C01082938D028
:1013200002282AD100F047F805463968880105D51A
:1013300000F04CF9401B0228F7D911E7206AB0F5FC
:10134000803F05D17968A06821F4003101437960BC
:101350007A68206A616A22F4741202430A437A604E
:10136000012000F029F804463868810120D400F0FB
:101370002DF9001B0228F7D9F2E600F01CF804460C
:101380003868810114D500F021F9001B0228F7D933
:10139000E6E601280AD07868226A00F4803191429A
:1013A00002BF00F47010616A884201D0012000E0A1
:1013B0000020BDE8F2830020306600F007B92DE977
:1013C000F041040088465FD0574E306800F00700B7
:1013D000404509D23168C90848EAC1013160306826
:1013E00000F0070040454FD12168484D880712D5CD
:1013F000490703D5686840F4E06068602078010719
:1014000003D5686840F4605068606968A06821F09E
:10141000F001014369602178C80726D5606801287A
:1014200002D129688A0303E0022803D129688A01CE
:1014300003D429E02B68990726D56A68920840EA08
:101440008200686000F0C2F807466868616800F0D2
:101450000C00B0EB810F08D000F0B8F8C01B41F2CF
:1014600089318842F1D3032032E0316801F007016D
:1014700088450BD23068C00848EAC0003060316847
:1014800001F00701414501D0012021E02178480702
:1014900005D56968E06821F4E0610143696021785D
:1014A0000A0706D56868216920F4605040EAC10047
:1014B000686000F00FF86A681C49C2F303128B5C85
:1014C0001349D84008601448006800F03FF8002035
:1014D000BDE8F08116490F480A6802F00C03082B9A
:1014E00000D0704710B500BF13A4C2F38343D203EA
:1014F000E35C08D50968584313A3C1F34041595C24
:10150000B0FBF1F010BD0B48584310BD0010024075
:101510000C00002000127A00080000200000424267
:10152000800442420070004000200240181700086A
:101530000410024000093D000203040506070809E3
:101540000A0B0C0D0E0F10100102704738B50D4D2F
:101550000D4A297804464FF47A731068B3FBF1F111
:10156000B0FBF1F0FFF7C1FA50B9102C08D20022FD
:1015700021464FF0FF30FFF78EFAAC60002032BDFD
:10158000012032BD000000200C0000200D4881B079
:10159000026842F001020260016801F0010100915D
:1015A000009A4168084A41F0805141600221406838
:1015B00000F0805000900098106861F31A6010608D
:1015C00001B0704718100240040001400148406813
:1015D000704700BF00000020FEE7FEE7FEE7FEE7E1
:1015E000FEE770477047704700F016B80748084993
:1015F00002680A80002303601020FFF76CBB0449D7
:1016000004484EF662220A80FEF724BE2400004001
:101610001000002014000020024A51681078411880
:10162000516070470000002030B4002412E050F8F0
:10163000043BDA0744BF4B445B1E091F042943F8EF
:10164000044BFAD21A468D0744BF1C80921CCB076C
:1016500048BF147050F8041B0029E8D130BC704713
:1016600010B5034A7A440832024C7C44A41D03E0BE
:101670001C0000003C00000004E01168101D114433
:1016800088470246A242F8D110BD00009DFFFFFF2F
:10169000900000001400002000000000ABF0FFFFED
:1016A0001400000084000000000000200000000082
:1016B00000F00DF8002801D0FFF7D2FFAFF3008053
:1016C0000020AFF30080FFF725F900F002F80120B9
:1016D000704700F001B800000746384600F002F8F5
:1016E000FBE7000080B5AFF30080024A110018202C
:1016F000ABBEFBE7260002000548014603B468467E
:1017000080F30988AFF30080AFF30080FFF7D0FFCC
:10171000A5EDF5FE7047000000000000000000008D
:101720000102030406070809010000000000000090
:10173000100000000024F400FFFF00000148804773
:101740000148004715170008F9160008FFF7FEBF0B
:10175000FFF7FEBFFFF7FEBFFFF7FEBFFFF7FEBFBD
:10176000FFF7FEBFFFF7FEBFFFF7FEBFFFF7FEBFAD
:10177000FFF7FEBFFFF7FEBFFFF7FEBFFFF7FEBF9D
:10178000FFF7FEBFFFF7FEBFFFF7FEBFFFF7FEBF8D
:10179000FFF7FEBFFFF7FEBFFFF7FEBFFFF7FEBF7D
:1017A000FFF7FEBFFFF7FEBFFFF7FEBFFFF7FEBF6D
:1017B000FFF7FEBFFFF7FEBFFFF7FEBFFFF7FEBF5D
:1017C000FFF7FEBFFFF7FEBFFFF7FEBFFFF7FEBF4D
:0C17D000FFF7FEBFFFF7FEBFFFF7FEBFF4
:04000005080016F9E0
:00000001FF
